{
  "contractName": "Farm",
  "abi": [
    {
      "inputs": [
        {
          "internalType": "contract ChickenToken",
          "name": "_chickenToken",
          "type": "address"
        },
        {
          "internalType": "contract EurToken",
          "name": "_eurToken",
          "type": "address"
        },
        {
          "internalType": "contract CowToken",
          "name": "_cowToken",
          "type": "address"
        },
        {
          "internalType": "contract GoatToken",
          "name": "_goatToken",
          "type": "address"
        }
      ],
      "payable": false,
      "stateMutability": "nonpayable",
      "type": "constructor"
    },
    {
      "constant": true,
      "inputs": [
        {
          "internalType": "uint256",
          "name": "",
          "type": "uint256"
        }
      ],
      "name": "allStakers",
      "outputs": [
        {
          "internalType": "address",
          "name": "",
          "type": "address"
        }
      ],
      "payable": false,
      "stateMutability": "view",
      "type": "function"
    },
    {
      "constant": true,
      "inputs": [],
      "name": "chickenToken",
      "outputs": [
        {
          "internalType": "contract ChickenToken",
          "name": "",
          "type": "address"
        }
      ],
      "payable": false,
      "stateMutability": "view",
      "type": "function"
    },
    {
      "constant": true,
      "inputs": [],
      "name": "cowToken",
      "outputs": [
        {
          "internalType": "contract CowToken",
          "name": "",
          "type": "address"
        }
      ],
      "payable": false,
      "stateMutability": "view",
      "type": "function"
    },
    {
      "constant": true,
      "inputs": [],
      "name": "eurToken",
      "outputs": [
        {
          "internalType": "contract EurToken",
          "name": "",
          "type": "address"
        }
      ],
      "payable": false,
      "stateMutability": "view",
      "type": "function"
    },
    {
      "constant": true,
      "inputs": [],
      "name": "goatToken",
      "outputs": [
        {
          "internalType": "contract GoatToken",
          "name": "",
          "type": "address"
        }
      ],
      "payable": false,
      "stateMutability": "view",
      "type": "function"
    },
    {
      "constant": true,
      "inputs": [],
      "name": "name",
      "outputs": [
        {
          "internalType": "string",
          "name": "",
          "type": "string"
        }
      ],
      "payable": false,
      "stateMutability": "view",
      "type": "function"
    },
    {
      "constant": true,
      "inputs": [],
      "name": "owner",
      "outputs": [
        {
          "internalType": "address",
          "name": "",
          "type": "address"
        }
      ],
      "payable": false,
      "stateMutability": "view",
      "type": "function"
    },
    {
      "constant": true,
      "inputs": [
        {
          "internalType": "string",
          "name": "_simbol",
          "type": "string"
        }
      ],
      "name": "getUserBalance",
      "outputs": [
        {
          "internalType": "uint256",
          "name": "",
          "type": "uint256"
        }
      ],
      "payable": false,
      "stateMutability": "view",
      "type": "function"
    },
    {
      "constant": true,
      "inputs": [
        {
          "internalType": "string",
          "name": "_simbol",
          "type": "string"
        }
      ],
      "name": "isUserStaking",
      "outputs": [
        {
          "internalType": "bool",
          "name": "",
          "type": "bool"
        }
      ],
      "payable": false,
      "stateMutability": "view",
      "type": "function"
    },
    {
      "constant": false,
      "inputs": [
        {
          "internalType": "uint256",
          "name": "_amount",
          "type": "uint256"
        },
        {
          "internalType": "string",
          "name": "_simbol",
          "type": "string"
        }
      ],
      "name": "stakeTokens",
      "outputs": [],
      "payable": false,
      "stateMutability": "nonpayable",
      "type": "function"
    },
    {
      "constant": false,
      "inputs": [
        {
          "internalType": "string",
          "name": "_simbol",
          "type": "string"
        }
      ],
      "name": "unstakeTokens",
      "outputs": [],
      "payable": false,
      "stateMutability": "nonpayable",
      "type": "function"
    },
    {
      "constant": false,
      "inputs": [
        {
          "internalType": "string",
          "name": "_simbol",
          "type": "string"
        }
      ],
      "name": "issueTokens",
      "outputs": [],
      "payable": false,
      "stateMutability": "nonpayable",
      "type": "function"
    }
  ],
  "bytecode": "0x60806040526040518060400160405280600481526020017f4661726d00000000000000000000000000000000000000000000000000000000815250600090805190602001906200005192919062000203565b503480156200005f57600080fd5b506040516200183438038062001834833981810160405260808110156200008557600080fd5b810190808051906020019092919080519060200190929190805190602001909291908051906020019092919050505083600260006101000a81548173ffffffffffffffffffffffffffffffffffffffff021916908373ffffffffffffffffffffffffffffffffffffffff16021790555082600360006101000a81548173ffffffffffffffffffffffffffffffffffffffff021916908373ffffffffffffffffffffffffffffffffffffffff16021790555081600460006101000a81548173ffffffffffffffffffffffffffffffffffffffff021916908373ffffffffffffffffffffffffffffffffffffffff16021790555080600560006101000a81548173ffffffffffffffffffffffffffffffffffffffff021916908373ffffffffffffffffffffffffffffffffffffffff16021790555033600160006101000a81548173ffffffffffffffffffffffffffffffffffffffff021916908373ffffffffffffffffffffffffffffffffffffffff16021790555050505050620002b2565b828054600181600116156101000203166002900490600052602060002090601f016020900481019282601f106200024657805160ff191683800117855562000277565b8280016001018555821562000277579182015b828111156200027657825182559160200191906001019062000259565b5b5090506200028691906200028a565b5090565b620002af91905b80821115620002ab57600081600090555060010162000291565b5090565b90565b61157280620002c26000396000f3fe608060405234801561001057600080fd5b50600436106100b35760003560e01c80638cd8e8d2116100715780638cd8e8d2146104a75780638da5cb5b146104f1578063a29e386e1461053b578063c3214d6c146105f6578063c69f55e014610664578063d049f351146106ae576100b3565b8062c3c77e146100b857806306fdde031461018b57806309e3faa71461020e5780630d9a941114610258578063392d85a31461031d5780633b50df66146103ec575b600080fd5b610171600480360360208110156100ce57600080fd5b81019080803590602001906401000000008111156100eb57600080fd5b8201836020820111156100fd57600080fd5b8035906020019184600183028401116401000000008311171561011f57600080fd5b91908080601f016020809104026020016040519081016040528093929190818152602001838380828437600081840152601f19601f8201169050808301925050505050505091929192905050506106f8565b604051808215151515815260200191505060405180910390f35b6101936107bb565b6040518080602001828103825283818151815260200191508051906020019080838360005b838110156101d35780820151818401526020810190506101b8565b50505050905090810190601f1680156102005780820380516001836020036101000a031916815260200191505b509250505060405180910390f35b610216610859565b604051808273ffffffffffffffffffffffffffffffffffffffff1673ffffffffffffffffffffffffffffffffffffffff16815260200191505060405180910390f35b61031b6004803603604081101561026e57600080fd5b81019080803590602001909291908035906020019064010000000081111561029557600080fd5b8201836020820111156102a757600080fd5b803590602001918460018302840111640100000000831117156102c957600080fd5b91908080601f016020809104026020016040519081016040528093929190818152602001838380828437600081840152601f19601f82011690508083019250505050505050919291929050505061087f565b005b6103d66004803603602081101561033357600080fd5b810190808035906020019064010000000081111561035057600080fd5b82018360208201111561036257600080fd5b8035906020019184600183028401116401000000008311171561038457600080fd5b91908080601f016020809104026020016040519081016040528093929190818152602001838380828437600081840152601f19601f820116905080830192505050505050509192919290505050610bf7565b6040518082815260200191505060405180910390f35b6104a56004803603602081101561040257600080fd5b810190808035906020019064010000000081111561041f57600080fd5b82018360208201111561043157600080fd5b8035906020019184600183028401116401000000008311171561045357600080fd5b91908080601f016020809104026020016040519081016040528093929190818152602001838380828437600081840152601f19601f820116905080830192505050505050509192919290505050610cad565b005b6104af611207565b604051808273ffffffffffffffffffffffffffffffffffffffff1673ffffffffffffffffffffffffffffffffffffffff16815260200191505060405180910390f35b6104f961122d565b604051808273ffffffffffffffffffffffffffffffffffffffff1673ffffffffffffffffffffffffffffffffffffffff16815260200191505060405180910390f35b6105f46004803603602081101561055157600080fd5b810190808035906020019064010000000081111561056e57600080fd5b82018360208201111561058057600080fd5b803590602001918460018302840111640100000000831117156105a257600080fd5b91908080601f016020809104026020016040519081016040528093929190818152602001838380828437600081840152601f19601f820116905080830192505050505050509192919290505050611253565b005b6106226004803603602081101561060c57600080fd5b8101908080359060200190929190505050611479565b604051808273ffffffffffffffffffffffffffffffffffffffff1673ffffffffffffffffffffffffffffffffffffffff16815260200191505060405180910390f35b61066c6114b5565b604051808273ffffffffffffffffffffffffffffffffffffffff1673ffffffffffffffffffffffffffffffffffffffff16815260200191505060405180910390f35b6106b66114db565b604051808273ffffffffffffffffffffffffffffffffffffffff1673ffffffffffffffffffffffffffffffffffffffff16815260200191505060405180910390f35b60006007826040518082805190602001908083835b60208310610730578051825260208201915060208101905060208303925061070d565b6001836020036101000a038019825116818451168082178552505050505050905001915050908152602001604051809103902060010160003373ffffffffffffffffffffffffffffffffffffffff1673ffffffffffffffffffffffffffffffffffffffff16815260200190815260200160002060010160019054906101000a900460ff169050919050565b60008054600181600116156101000203166002900480601f0160208091040260200160405190810160405280929190818152602001828054600181600116156101000203166002900480156108515780601f1061082657610100808354040283529160200191610851565b820191906000526020600020905b81548152906001019060200180831161083457829003601f168201915b505050505081565b600560009054906101000a900473ffffffffffffffffffffffffffffffffffffffff1681565b600082116108f5576040517f08c379a00000000000000000000000000000000000000000000000000000000081526004018080602001828103825260188152602001807f4661726d3a20616d6f756e742063616e6e6f742062652030000000000000000081525060200191505060405180910390fd5b600360009054906101000a900473ffffffffffffffffffffffffffffffffffffffff1673ffffffffffffffffffffffffffffffffffffffff166323b872dd3330856040518463ffffffff1660e01b8152600401808473ffffffffffffffffffffffffffffffffffffffff1673ffffffffffffffffffffffffffffffffffffffff1681526020018373ffffffffffffffffffffffffffffffffffffffff1673ffffffffffffffffffffffffffffffffffffffff1681526020018281526020019350505050602060405180830381600087803b1580156109d257600080fd5b505af11580156109e6573d6000803e3d6000fd5b505050506040513d60208110156109fc57600080fd5b81019080805190602001909291905050505060006007826040518082805190602001908083835b60208310610a465780518252602082019150602081019050602083039250610a23565b6001836020036101000a0380198251168184511680821785525050505050509050019150509081526020016040518091039020905060008160010160003373ffffffffffffffffffffffffffffffffffffffff1673ffffffffffffffffffffffffffffffffffffffff16815260200190815260200160002090508381600001600082825401925050819055508060010160009054906101000a900460ff16610bd45760018160010160006101000a81548160ff021916908315150217905550816000013390806001815401808255809150509060018203906000526020600020016000909192909190916101000a81548173ffffffffffffffffffffffffffffffffffffffff021916908373ffffffffffffffffffffffffffffffffffffffff1602179055505060063390806001815401808255809150509060018203906000526020600020016000909192909190916101000a81548173ffffffffffffffffffffffffffffffffffffffff021916908373ffffffffffffffffffffffffffffffffffffffff160217905550505b60018160010160016101000a81548160ff02191690831515021790555050505050565b60006007826040518082805190602001908083835b60208310610c2f5780518252602082019150602081019050602083039250610c0c565b6001836020036101000a038019825116818451168082178552505050505050905001915050908152602001604051809103902060010160003373ffffffffffffffffffffffffffffffffffffffff1673ffffffffffffffffffffffffffffffffffffffff168152602001908152602001600020600001549050919050565b60006007826040518082805190602001908083835b60208310610ce55780518252602082019150602081019050602083039250610cc2565b6001836020036101000a03801982511681845116808217855250505050505090500191505090815260200160405180910390209050600081600001905060008090505b8180549050811015611201576000836001016000848481548110610d4857fe5b9060005260206000200160009054906101000a900473ffffffffffffffffffffffffffffffffffffffff1673ffffffffffffffffffffffffffffffffffffffff1673ffffffffffffffffffffffffffffffffffffffff16815260200190815260200160002090506000816000015411156111f357610dfb856040518060400160405280600781526020017f434849434b454e00000000000000000000000000000000000000000000000000815250611501565b15610f2457600260009054906101000a900473ffffffffffffffffffffffffffffffffffffffff1673ffffffffffffffffffffffffffffffffffffffff1663a9059cbb848481548110610e4a57fe5b9060005260206000200160009054906101000a900473ffffffffffffffffffffffffffffffffffffffff1683600001546040518363ffffffff1660e01b8152600401808373ffffffffffffffffffffffffffffffffffffffff1673ffffffffffffffffffffffffffffffffffffffff16815260200182815260200192505050602060405180830381600087803b158015610ee357600080fd5b505af1158015610ef7573d6000803e3d6000fd5b505050506040513d6020811015610f0d57600080fd5b8101908080519060200190929190505050506111f2565b610f63856040518060400160405280600381526020017f434f570000000000000000000000000000000000000000000000000000000000815250611501565b1561108c57600460009054906101000a900473ffffffffffffffffffffffffffffffffffffffff1673ffffffffffffffffffffffffffffffffffffffff1663a9059cbb848481548110610fb257fe5b9060005260206000200160009054906101000a900473ffffffffffffffffffffffffffffffffffffffff1683600001546040518363ffffffff1660e01b8152600401808373ffffffffffffffffffffffffffffffffffffffff1673ffffffffffffffffffffffffffffffffffffffff16815260200182815260200192505050602060405180830381600087803b15801561104b57600080fd5b505af115801561105f573d6000803e3d6000fd5b505050506040513d602081101561107557600080fd5b8101908080519060200190929190505050506111f1565b6110cb856040518060400160405280600481526020017f474f415400000000000000000000000000000000000000000000000000000000815250611501565b156111f057600560009054906101000a900473ffffffffffffffffffffffffffffffffffffffff1673ffffffffffffffffffffffffffffffffffffffff1663a9059cbb84848154811061111a57fe5b9060005260206000200160009054906101000a900473ffffffffffffffffffffffffffffffffffffffff1683600001546040518363ffffffff1660e01b8152600401808373ffffffffffffffffffffffffffffffffffffffff1673ffffffffffffffffffffffffffffffffffffffff16815260200182815260200192505050602060405180830381600087803b1580156111b357600080fd5b505af11580156111c7573d6000803e3d6000fd5b505050506040513d60208110156111dd57600080fd5b8101908080519060200190929190505050505b5b5b5b508080600101915050610d28565b50505050565b600460009054906101000a900473ffffffffffffffffffffffffffffffffffffffff1681565b600160009054906101000a900473ffffffffffffffffffffffffffffffffffffffff1681565b60006007826040518082805190602001908083835b6020831061128b5780518252602082019150602081019050602083039250611268565b6001836020036101000a0380198251168184511680821785525050505050509050019150509081526020016040518091039020905060008160010160003373ffffffffffffffffffffffffffffffffffffffff1673ffffffffffffffffffffffffffffffffffffffff168152602001908152602001600020905060008160000154905060008111611367576040517f08c379a000000000000000000000000000000000000000000000000000000000815260040180806020018281038252602181526020018061151d6021913960400191505060405180910390fd5b600360009054906101000a900473ffffffffffffffffffffffffffffffffffffffff1673ffffffffffffffffffffffffffffffffffffffff1663a9059cbb33836040518363ffffffff1660e01b8152600401808373ffffffffffffffffffffffffffffffffffffffff1673ffffffffffffffffffffffffffffffffffffffff16815260200182815260200192505050602060405180830381600087803b15801561141057600080fd5b505af1158015611424573d6000803e3d6000fd5b505050506040513d602081101561143a57600080fd5b8101908080519060200190929190505050506000826000018190555060008260010160016101000a81548160ff02191690831515021790555050505050565b6006818154811061148657fe5b906000526020600020016000915054906101000a900473ffffffffffffffffffffffffffffffffffffffff1681565b600360009054906101000a900473ffffffffffffffffffffffffffffffffffffffff1681565b600260009054906101000a900473ffffffffffffffffffffffffffffffffffffffff1681565b6000818051906020012083805190602001201490509291505056fe4661726d3a207374616b696e672062616c616e63652063616e6e6f742062652030a265627a7a723158201acbe8ccd4c7d79255fa555e57839831e261b9c14bbabd8740b46408f7ca3f6464736f6c63430005100032",
  "source": "pragma solidity ^0.5.0;\n\nimport \"./ChickenToken.sol\";\nimport \"./EurToken.sol\";\nimport \"./CowToken.sol\";\nimport \"./GoatToken.sol\";\n\ncontract Farm {\n    string public name = \"Farm\";\n    address public owner;\n\n    ChickenToken public chickenToken;\n    EurToken public eurToken;\n    CowToken public cowToken;\n    GoatToken public goatToken;\n\n    address[] public allStakers;\n\n    struct User {\n        uint eurBalance;\n        bool hasStaked;\n        bool isStaking;\n    }\n\n    struct Currency {\n        address[] stakers;\n        mapping (address => User) user;\n    }\n\n    mapping(string => Currency) currencies;\n\n    constructor(ChickenToken _chickenToken, EurToken _eurToken, CowToken _cowToken, GoatToken _goatToken) public {\n        chickenToken = _chickenToken;\n        eurToken = _eurToken;\n        cowToken = _cowToken;\n        goatToken = _goatToken;\n        owner = msg.sender;\n    }\n\n    function getUserBalance(string memory _simbol) public view returns (uint) {\n        return currencies[_simbol].user[msg.sender].eurBalance;\n    }\n\n    function isUserStaking(string memory _simbol) public view returns (bool) {\n        return currencies[_simbol].user[msg.sender].isStaking;\n    }\n\n    function stakeTokens(uint _amount, string memory _simbol) public {\n        require(_amount > 0, \"Farm: amount cannot be 0\");\n\n        eurToken.transferFrom(msg.sender, address(this), _amount);\n\n        Currency storage currency = currencies[_simbol];\n        User storage user = currency.user[msg.sender];\n        user.eurBalance += _amount;\n\n        if (!user.hasStaked) {\n            user.hasStaked = true;\n            currency.stakers.push(msg.sender);\n            allStakers.push(msg.sender);\n        }\n\n        user.isStaking = true;\n    }\n\n    function unstakeTokens(string memory _simbol) public {\n        Currency storage currency = currencies[_simbol];\n        User storage user = currency.user[msg.sender];\n        uint balance = user.eurBalance;\n\n        require(balance > 0, \"Farm: staking balance cannot be 0\");\n        eurToken.transfer(msg.sender, balance);\n\n        user.eurBalance = 0;\n        user.isStaking = false;\n    }\n\n    function issueTokens(string memory _simbol) public {\n        // require(msg.sender == owner, \"Farm: caller must be the owner\");\n\n        Currency storage currency = currencies[_simbol];\n        address[] storage stakers = currency.stakers;\n\n        for (uint i = 0; i < stakers.length; i++) {\n            User storage user = currency.user[stakers[i]];\n            if (user.eurBalance > 0) {\n                if (stringsEqual(_simbol, \"CHICKEN\")) {\n                    chickenToken.transfer(stakers[i], user.eurBalance);\n                } else if (stringsEqual(_simbol, \"COW\")) {\n                    cowToken.transfer(stakers[i], user.eurBalance);\n                } else if (stringsEqual(_simbol, \"GOAT\")) {\n                    goatToken.transfer(stakers[i], user.eurBalance);\n                } \n            }\n        }\n    }\n\n    function stringsEqual(string memory a, string memory b) private pure returns(bool) {\n        return keccak256(bytes(a)) == keccak256(bytes(b));\n    }\n}",
  "sourcePath": "/Users/rendertom/Programming/VU-Blockchain-Task-4-Dapp/contracts/Farm.sol",
  "compiler": {
    "name": "solc",
    "version": "0.5.16+commit.9c3226ce.Emscripten.clang"
  },
  "schemaVersion": "3.4.3",
  "updatedAt": "2021-12-06T06:48:51.670Z",
  "networkType": "ethereum",
  "devdoc": {
    "methods": {}
  },
  "userdoc": {
    "methods": {}
  }
}